:020000040800F2
:10000000B0080020010100081B140008AF1200080E
:1000100019140008CB010008FD17000800000000BB
:100020000000000000000000000000001F14000895
:10003000CD010008000000001D1400082114000874
:100040001B0100081B0100081B0100081B01000820
:100050001B0100081B0100081B0100081B01000810
:100060001B0100081B0100081B0100081B01000800
:100070001B0100081B0100081B0100081B010008F0
:100080001B0100081B0100081B0100081B010008E0
:100090001B0100081B0100081B0100081B010008D0
:1000A0001B0100081B0100081B0100081B010008C0
:1000B000851400081B0100081B0100081B01000833
:1000C0001B0100081B0100081B0100081B010008A0
:1000D0001B0100081B0100081B0100081B01000890
:1000E0001B0100081B0100081B010008DFF80CD0F1
:1000F00000F02AF80048004789180008B0080020DE
:100100000648804706480047FEE7FEE7FEE7FEE7B1
:10011000FEE7FEE7FEE7FEE7FEE7FEE781140008E4
:10012000ED000008D2B201E000F8012B491EFBD21D
:1001300070470022F6E710B513460A4604461946F2
:10014000FFF7F0FF204610BD064C074D06E0E068C3
:1001500040F0010394E8070098471034AC42F6D30E
:10016000FFF7C8FFF81800081819000870B58D18B7
:1001700010F8014B14F0030201D110F8012B2311E8
:1001800006D110F8013B03E010F8016B01F8016B98
:10019000521EF9D1ABB110F8012B04F00C048A1AED
:1001A0000C2C03D0A2EB84129B1C08E010F8014B2E
:1001B000A2EB0422F8E712F8014B01F8014B5B1E99
:1001C000F9D5A942D4D3002070BDFEE7704772B6BE
:1001D000FEE700002DE9F84FDFF8B891002409F19F
:1001E000040A0AF1040B23460F270BF1040EC9E0A1
:1001F0000125A5402A40AA427DD1674ED1F804C00E
:10020000ACEB0608B44532D014DCBCF1030F3AD095
:1002100009DCBCF1000F2AD0BCF1010F1CD0BCF1ED
:10022000020F31D11DE0BCF1110F17D0BCF1120F3C
:100230002AD119E0B8F5881F19D006DCB8F5803F3F
:1002400015D0B8F5801F1FD111E0B8F5001F0ED0F2
:10025000B8F5041F18D10AE0CB6815E0CB681B1D68
:1002600012E0CB6808330FE0CB680C330CE08B68EE
:100270002BB1012B4FF0080303D0456104E00423A8
:1002800002E0056100E00023FF2A01D8064601E0F4
:1002900000F104064FEA840501D9A5F12005D6F83E
:1002A000008007FA05FC28EA0C0803FA05F548EA7D
:1002B0000508C6F800804D68ED0062D5374DAE697F
:1002C00046F00106AE61AD6924F0030605F00105B4
:1002D0000095334D06EB050CDCF80850A607360FE9
:1002E00007FA06F825EA0805DFF8B880404503D18B
:1002F0004FF0000817E044E0DFF8AC80404502D141
:100300004FF001080FE0DFF8A480404502D14FF024
:10031000020808E0DFF89880404502D14FF003085A
:1003200001E04FF0040808FA06F848EA0508CCF89E
:1003300008804D68D9F80060ED034D4601D516439D
:1003400000E096432E604D68DAF80060AD03554634
:1003500001D5164300E096432E604D68DBF800603F
:10036000ED025D4601D5164300E096432E604D68D0
:10037000DEF80060AD02754601D5164300E09643F5
:100380002E60641C0D682A46E5407FF431AFBDE85D
:10039000F88F00000004014000001110001002401E
:1003A0000000014000080140000C01400010014025
:1003B000001401400148806870470000C403002019
:1003C000024881680278114481607047C4030020AC
:1003D000074810B5016841F010010160032000F0EA
:1003E00075F8002000F006F800F024F8002010BD99
:1003F0000020024070B50D4D04464FF47A71287804
:10040000B1FBF0F00A490968B1FBF0F000F0ECFA3A
:1004100048B9102C07D200222146501E00F036F8B1
:1004200000206C6070BD012070BD0000C40300207E
:10043000D00300200C4808B5816941F001018161B9
:10044000816901F001010091C16941F08051C161F0
:10045000C06900F0805000900448416821F0E061DC
:1004600041F08061416008BD001002400000014081
:10047000002809DB00F01F020121914040098000A3
:1004800000F1E020C0F8001170470000F0B40E4BFE
:100490001B680C46C3F30223C3F10705042D00D9E2
:1004A0000425191D072901D2002300E0DB1E0126C7
:1004B00006FA05F1491E214099409E40761E1640DD
:1004C0003143F0BC01F0A4B90CED00E0064900F0A6
:1004D000070208684FF6FF03184040EA0220034A6B
:1004E00010430860704700000CED00E00000FA05C2
:1004F0002DE9F0470F46050061D0434E306800F00B
:100500000700B84209D2306820F007003843306055
:10051000306800F00700B84251D128683B4C810791
:1005200012D5400703D5606840F4E0606060287829
:10053000000703D5606840F4605060606068A96897
:1005400020F0F000084360602878C00728D0686871
:10055000012810D02168022810D0890700292EDA3E
:10056000616821F0030101436160FFF723FF8046CA
:1005700041F288390DE021688903EFE78901EDE751
:10058000FFF718FFA0EB0801494502D90320BDE899
:10059000F0876068696800F00C00B0EB810FEFD164
:1005A000306800F00700B8420BD9306820F007002F
:1005B00038433060306800F00700B84201D00120B5
:1005C000E5E72878400705D56068E96820F4E06031
:1005D000084360602878000706D56068296920F420
:1005E000605040EAC100606000F038F86168084A75
:1005F000C1F30311515CC840064908600648006811
:10060000FFF7F8FE0020C2E7002002400010024081
:10061000E0180008D0030020C80300200448054962
:1006200000684968044AC1F30221515CC840704720
:10063000D003002000100240F018000804480549CB
:1006400000684968044AC1F3C221515CC840704740
:10065000D003002000100240F018000812A185B05D
:100660000FC98DE80F0014A0144A00680490516867
:10067000134801F00C03042B10D0082B0ED1C1F34A
:100680008343C9031DF803000AD5516804AAC1F3C6
:100690004041515C0A4A5043B0FBF1F005B070474D
:1006A00008494843FAE70000020304050607080961
:1006B0000A0B0C0D0E0F101001020000001002407A
:1006C00000127A0000093D002DE9F84F040070D0B7
:1006D0002078C04DC00749D06868C0F38100012868
:1006E00007D06868C0F38100022809D16868C00398
:1006F00006D52868800339D560680028E7D035E042
:100700006068B0F5803F0BD010B1B0F5A02F11D0CC
:10071000286820F480302860286820F4802002E0D7
:10072000286840F480302860606890B1FFF742FE8E
:1007300006460AE0286840F480202860F0E700BF01
:10074000FFF738FE801B642873D828688003F7D52C
:100750000CE0FFF72FFE064605E000BFFFF72AFE7C
:10076000801B6428F0D828688003F7D420789A4E3C
:1007700080074FF001094FF0000839D5686810F084
:100780000C0F07D06868C0F38100022809D168689F
:10079000C00306D42868800714D52069012808D131
:1007A00010E02069B0B1C6F80090FFF703FE0746DD
:1007B00005E00AE1FFF7FEFDC01B0228C4D8286847
:1007C0008007F7D52868616920F0F80040EAC10089
:1007D00028600DE0C6F80080FFF7ECFD074604E056
:1007E000FFF7E8FDC01B022823D828688007F7D44C
:1007F000207800072CD57948A169D9B1C0F80090BC
:10080000FFF7D8FD074604E0FFF7D4FDC01B022820
:100810000FD8686A8007F7D571484FF4FA5100681D
:10082000B0FBF1F0009000BF0098411E0091FAD299
:100830000EE080E0C0F80080FFF7BCFD074604E052
:10084000FFF7B8FDC01B022875D8686A8007F7D487
:100850002078400760D5E8690027C00008D4E8691F
:1008600040F08050E861E869012700F08050009076
:100870005C480168C90513D40168834641F480715E
:100880000160FFF797FD824606E000BFFFF792FD8B
:10089000A0EB0A0064284ED8DBF80000C005F5D5AF
:1008A000E06801280AD008B1052813D0286A20F092
:1008B00001002862286A20F0040002E0286A40F063
:1008C00001002862E06841F2883B98B1FFF772FDB1
:1008D00082460BE0286A40F004002862EEE700BF81
:1008E000FFF768FDA0EB0A0159455AD8286A80072E
:1008F000F6D50CE0FFF75EFD824605E0FFF75AFDF6
:10090000A0EB0A0159454CD8286A8007F6D41FB1DC
:10091000E86920F08050E861E06988B36968C1F354
:100920008101022944D00228C6F8608004D0FFF774
:1009300041FD044638E034E0FFF73CFD074604E0A3
:10094000FFF738FDC01B02282BD828688001F7D498
:10095000206AB0F5803F05D16868A16820F40030B6
:1009600008436860D4E908010843696821F47411F8
:1009700008436860C6F86090FFF71CFD044606E077
:1009800025E000BFFFF716FD001B022809D82868E4
:100990008001F7D51BE000BFFFF70CFD001B02280C
:1009A00002D90320BDE8F88F28688001F4D40EE056
:1009B0000128F7D06868226A00F48031914204D19E
:1009C000616A00F47010884201D00120EAE700203B
:1009D000E8E700000010024000004242800442426A
:1009E000D00300200070004010B5401EB0F1807FA1
:1009F00001D3012010BD4FF0E02460610F2160178A
:100A000000F006FF0020A06107202061002010BD3B
:100A10007047704710B590F83C20012A22D001227F
:100A200080F83C20CA688C6822F4407222434C68EB
:100A300022F4806222430C6822F4006222430C6993
:100A400022F4805222434C6922F400522243C969A5
:100A5000002322F480420A4301684A6480F83C3053
:100A6000002010BD022010BD70B590F83C20012A76
:100A700026D0012480F83C40022280F83D20036803
:100A80005A689D6822F070060A6832435A600D4B1E
:100A900002689A4208D0B2F1804F05D00A4B9A42C0
:100AA00002D00A4B9A4204D1496825F080031943C9
:100AB000916080F83D40002180F83C10084670BDF0
:100AC000022070BD002C01400004004000080040DE
:100AD00010B50446022249B104290ED0082913D0CA
:100AE00094F84500012816D0012010BD94F842006A
:100AF0000128F9D184F842200FE094F8430001283E
:100B0000F2D184F8432008E094F844000128EBD1A6
:100B100084F8442001E084F845200422206800F095
:100B2000FAFC2068416C41F4004141640B492068A3
:100B3000884208D0B0F1804F05D00949884202D0E0
:100B40000849884204D1816801F00701062903D0D1
:100B5000016841F001010160002010BD002C01403E
:100B6000000400400008004010B5040003D094F8D1
:100B70003D0010B107E0012010BD002084F83C00CA
:100B8000204600F01FF8022084F83D00211D206857
:100B900000F07EFC012084F8460084F83E0084F8D2
:100BA0003F0084F8400084F8410084F8420084F853
:100BB000430084F8440084F8450084F83D00002098
:100BC00010BD000008B50068B0F1804F12D10A488E
:100BD000C16941F00101C161C069002200F001005A
:100BE000009011461C20FFF751FCBDE808401C2076
:100BF000FFF73EBC08BD00000010024090F83D1019
:100C0000012901D001207047022180F83D100168C0
:100C1000CA6842F00102CA6000680B49884208D0E5
:100C2000B0F1804F05D00949884202D00849884276
:100C300004D1816801F00701062903D0016841F061
:100C40000101016000207047002C014000040040B9
:100C50000008004070B5044690F83C00012817D009
:100C6000012584F83C50022084F83D002068826809
:100C700022F0770222F47F4282600868502830D048
:100C80000DDC20284DD005DC98B310283BD148E07E
:100C9000022070BD302844D0402834D139E060288B
:100CA00028D0702806D0B0F5805F2CD0B0F5005F5A
:100CB00029D10AE0CB68D1E90121206800F038FC95
:100CC0002068816841F0770109E0CB68D1E9012112
:100CD000206800F02DFC2068816841F4804181602B
:100CE00011E0CA684968206800F0D6FC50212068ED
:100CF00007E016E0CA684968206800F0DEFC602161
:100D0000206800F01FFC84F83D50002084F83C006F
:100D100070BDCA684968206800F0BEFC40212068A8
:100D2000EFE7226801461046EBE7704770B50446CE
:100D3000006801694FF00005C943890715D4C168EF
:100D4000C943890711D4E91E016101202077206879
:100D500080698007204602D0FFF7E7FF04E000F03B
:100D6000CBF8204600F06EF9257720680169C94369
:100D7000490717D4C168C943490713D46FF0040168
:100D80000161022020772068806910F4407F2046AE
:100D900002D0FFF7CAFF04E000F0AEF8204600F0F2
:100DA00051F9257720680169C943090716D4C1683C
:100DB000C943090712D46FF00801016104202077AC
:100DC0002068C0698007204602D0FFF7AEFF04E02C
:100DD00000F092F8204600F035F925772068016987
:100DE000C943C90617D4C168C943C90613D46FF0F3
:100DF00010010161082020772068C06910F4407F4D
:100E0000204602D0FFF791FF04E000F075F820467D
:100E100000F018F9257720680169C943C90708D18E
:100E2000C168C943C90704D1891E0161204600F089
:100E300059F920680169C943090609D4C168C94341
:100E4000090605D46FF0800101612046FFF7E0FD3F
:100E500020680169C943490609D4C168C9434906E4
:100E600005D46FF040010161204600F05DF9206873
:100E70000169C94389060BD4C168C943890607D4EF
:100E80006FF0200101612046BDE87040FFF7C1BD51
:100E900070BD000000B585B0002100910191029164
:100EA00003910068104988421BD11048816941F0C4
:100EB000040181618069694600F0040004904FF4E8
:100EC000C07000900220019003900948FFF782F95A
:100ED0000848416821F0C00141F0E06141F0400163
:100EE000416005B000BD0000002C01400010024030
:100EF0000008014000000140704770B5044690F8BA
:100F00003C000D4601280AD0012084F83C0042B183
:100F1000042A18D0082A2AD00C2A4DD139E0022000
:100F200070BD206800F016FB2068816941F008015F
:100F300081612068816921F00401816120688169F3
:100F40002A69114311E0206800F02CFB20688169B8
:100F500041F4006181612068816921F480618161CF
:100F6000206881692A6941EA0221816124E02068C0
:100F700000F044FB2068C16941F00801C1612068AC
:100F8000C16921F00401C1612068C1692A69114366
:100F900011E0206800F05EFB2068C16941F4006147
:100FA000C1612068C16921F48061C1612068C169A3
:100FB0002A6941EA0221C161002084F83C0070BD29
:100FC00010B5040003D094F83D0010B107E00120F3
:100FD00010BD002084F83C00204600F01FF80220DD
:100FE00084F83D00211D206800F052FA012084F8A9
:100FF000460084F83E0084F83F0084F8400084F8FE
:10100000410084F8420084F8430084F8440084F8E6
:10101000450084F83D00002010BD000008B50068C0
:101020000649884208D10648816941F4006181611E
:10103000806900F40060009008BD0000002C0140B1
:10104000001002407047000010B50446022249B16A
:1010500004290ED0082913D094F84100012816D095
:10106000012010BD94F83E000128F9D184F83E20FB
:101070000FE094F83F000128F2D184F83F2008E007
:1010800094F840000128EBD184F8402001E084F876
:1010900041200122206800F031FA0F49206888427F
:1010A00003D1426C42F4004242642068884208D076
:1010B000B0F1804F05D00949884202D008498842E2
:1010C00004D1816801F00701062903D0016841F0CD
:1010D00001010160002010BD002C0140000400400F
:1010E000000800400D49884217D10D4A101F0168C1
:1010F00002EB8102526802EB820252000A2392FB49
:10110000F3F2084BC2F548721A60EF2901DC01685E
:1011100001E000210160491C0160704720040020AB
:1011200004000020342C0140704770B5040004D046
:1011300094F83D00002510B106E0012070BD84F850
:101140003C50204600F022F8242084F83D0020681E
:10115000C16821F40051C160204600F0C1FA206846
:10116000016921F4904101612068416921F02A015F
:1011700041612068C16841F40051C16025642020AC
:1011800084F83D0084F83E00002070BD30B585B085
:101190000024009401940294039400681449884246
:1011A00024D11448C16941F48021C161C16901F4AD
:1011B00080210491816941F00801816180690E4DAF
:1011C00000F0080004904FF480600090022001902D
:1011D0000320039069462846FEF7FCFFE814CDE99A
:1011E0000004694628460294FEF7F4FF05B030BDBE
:1011F0000048004000100240000C01402DE9F84377
:10120000044690F83D001F4616460D4620284CD156
:10121000C5B1BEB194F83C00012846D0012084F845
:101220003C004FF00008C4F84080212084F83D00C5
:10123000FFF7C0F8A6848146E684A068B0F5805F19
:1012400003D004E00120BDE8F883206928B12E46D0
:101250005FF0000584F83C800EE00026FAE780216C
:10126000204600F099FAA0B9AEB116F8010B21683A
:101270004860E08C401EE084E08C4B464FF000025A
:1012800000970028EBD14FF04001204600F084FA8F
:1012900030B10320D7E735F8020BC0F30800E6E7CA
:1012A000202084F83D000020CDE70220CBE7FEE7B8
:1012B000094808B5816941F004018161816901F043
:1012C00004010091816941F008018161806900F0A9
:1012D0000800009008BD00000010024030B591B039
:1012E00000240F941C2108A81094FEF722FF20214F
:1012F0006846FEF71EFF20481E490125C0E900157B
:1013000040F23F61C0E90241046144618461FFF73A
:1013100057FE08B1FEF75BFF0F940FA91648109413
:10132000FFF7A2FB08B1FEF752FF6020CDE90804E9
:101330000A940B940C940D94002208A90E480E9464
:10134000FFF7DBFD08B1FEF742FF00944FF40050B9
:10135000CDE90440CDE90245019469460648079469
:10136000FFF758FB08B1FEF732FF0348FFF792FD85
:1013700011B030BD002C0140D803002010B586B05C
:1013800000241648009401940294039404944FF0AE
:101390008041059401603F21C0E901145221C0E958
:1013A000031480218161FFF7DFFB08B1FEF70FFF17
:1013B0004FF48050009069460848FFF74BFC08B195
:1013C000FEF705FF049404A904480594FFF74CFBBD
:1013D000002801D0FEF7FBFE06B010BD200400205F
:1013E0000C4810B50A4901604FF4E1314160002119
:1013F00081600C22C160C0E904128161C161FFF704
:1014000094FE002803D0BDE81040FEF7E0BE10BDFA
:101410000048004068040020FEE7FEE77047704780
:10142000FEF7CEBF30B58FB028216846FEF781FEAB
:1014300014210AA8FEF77DFE0225012004900095E4
:101440001020059000244FF46010CDE90840079566
:101450006846FFF739F908B172B6FEE70F20CDE90B
:101460000A054FF48060CDE90C4002210AA80E94D1
:10147000FFF73EF8002801D072B6FEE70FB030BD8E
:10148000704700000148FFF751BC00002004002015
:10149000F0B50268164B174C174D4FF08047984235
:1014A00005D0B84203D0A04201D0A84203D122F017
:1014B00070064A683243984205D0B84203D0A04231
:1014C00001D0A84203D122F44074CA6822434C6977
:1014D00022F08002224302608A68C2620A68826245
:1014E000984201D10969016301214161F0BD000009
:1014F000002C0140000400400008004010B501F03D
:101500001F030121046A99408C430462016A9A40D6
:101510001143016210BD10B501F01F030421046ADC
:1015200099408C430462016A9A401143016210BDE4
:1015300010B5846842EA032224F47F440A4322431C
:10154000826010BD826822F070020A4342F00701F7
:101550008160704730B5026A22F001020262026ABD
:101560004368846924F073050C682C4322F002055B
:101570008A682A430A4DA8420BD122F00805CA689E
:1015800023F440732A434D6922F004021D438B6902
:101590002B434360846149684163026230BD0000AF
:1015A000002C014030B5026A22F010020262026A89
:1015B000436884690D6824F4E64444EA05248D6890
:1015C00022F0200242EA05120B4DA8420ED1CD684E
:1015D00022F0800242EA05124D6923F4406343EA97
:1015E00085038D6922F0400243EA850343608461EC
:1015F00049688163026230BD002C014030B5026A47
:1016000022F480720262036A4268C46923F40073A0
:1016100024F073050C682C438D6843EA05230C4DB8
:10162000A8420ED1CD6823F4006343EA05234D6937
:1016300022F4405242EA05128D6923F4806342EAA3
:1016400005124260C4614968C163036230BD000095
:10165000002C014030B5026A22F480520262046A12
:101660004268C3690D6823F4E64343EA05238D68A5
:1016700024F4005444EA0534064DA84204D14D69CF
:1016800022F4804242EA85124260C36149680164E3
:10169000046230BD002C014010B5036A046A24F0D6
:1016A00001040462846924F0F00444EA021423F083
:1016B0000A020A438461026210BD10B5036A23F076
:1016C000100303628369046A23F4704343EA02321D
:1016D00024F0A00343EA01118261016210BD000001
:1016E00070B5044600680169E26821F44051114375
:1016F00001612169A0680843616908432168CA68DB
:1017000041F20C639A430243CA6020684169A269AE
:1017100021F44071114341611E492068884202D181
:10172000FEF78CFF01E0FEF779FF00EBC00101EB53
:101730000012606864218000B2FBF0F3B3FBF1F3A8
:101740006FF018067343B2FBF0F5B2FBF0F605EB51
:101750008305322303EB0515B5FBF1F5B6FBF1F676
:1017600005F0F00505EB0615B2FBF0F6B2FBF0F064
:10177000B0FBF1F06FF01802504306EB800003EB72
:101780000010B0FBF1F0216800F00F0028448860E1
:1017900070BD0000003801402DE9F0419846174621
:1017A0000E460446069D1DE0681C1BD02DB1FEF7B9
:1017B00001FEA0EB0800A84214D92068C16821F4FA
:1017C000D071C1602068416921F001014161202090
:1017D00084F83D0084F83E00002084F83C0003209B
:1017E000BDE8F0812068006836EA000004D00020DF
:1017F000B842D9D00020F3E70120F9E7FEE7000066
:10180000014A024900F023B871180008D4030020EF
:101810000907090E002804DB00F1E02080F800141D
:10182000704700F00F0000F1E02080F8141D7047B1
:1018300002E008C8121F08C1002AFAD17047704799
:10184000002001E001C1121F002AFBD170472DE9E1
:10185000F04116460F460446002503E03946B047DE
:10186000641C6D1C20780028F8D12846BDE8F08162
:1018700013B54FF6FF73012269460248FFF7BEFC1D
:1018800000981CBD68040020FEF7A2FDFFF7CAFD0A
:10189000FFF70EFDFFF722FDFFF7A2FDFFF76EFD3C
:1018A00000210A48FFF7D0FB00210848FFF710F994
:1018B000074808490068C0F5487008600648FFF707
:1018C0009DF906A0FFF79CFFFEE70000D80300206B
:1018D00004000020342C014020040020300D0A00B8
:1018E00000000000000000000102030406070809D0
:1018F0000000000001020304181900080000002085
:10190000D80300006C010008541B0008D803002015
:10191000D8040000401800085200011214041229D3
:1019200004123E04125304126804127C041291043F
:1019300012A60412BA0412CE0412E20412F63010F7
:10194000060A0100001E0412310412440412570456
:10195000126A04127D04128F0412A10412B304123D
:10196000C40412D50412E60412F63410060602006E
:1019700000160412250412340412430412510412F6
:101980005F04126C04127904128604129204129EEF
:101990000412A90412B30412BE0412C70412D10423
:1019A00012D90412E20412E90412F10412F704122B
:1019B000FE581006030300000804120D041211045F
:1019C000121504121804121A04121C04121D041217
:1019D0001E04521F08521D18521A28521538520D53
:1019E00048215052FE6052F17052E28052D1905222
:1019F000BEA052A9B05292C05279D0525FE0524379
:101A0000F0562500250856F61856D52856B33856F0
:101A10008F48566A585644682570257856F6885679
:101A2000CE9856A6A8567CB85653C85629D825E055
:101A30001006ECFFFFFFD70412C20412AD04129887
:101A400004128404126F04125A041246041232045F
:101A5000121E04120A2C1006F6FEFFFFE20412CF3B
:101A60000412BC0412A90412960412830412710415
:101A7000125F04124D04123C04122B04121A0412B9
:101A80000A341006FAFDFFFFEA0412DB0412CC044C
:101A900012BD0412AF0412A104129404128704129E
:101AA0007A04126E04126204125704124D04124298
:101AB00004123904122F04122704121E04121704F0
:101AC000120F041209041202581006FDFCFFFFF861
:101AD0000412F30412EF0412EB0412E80412E604F9
:101AE00012E40412E30412E20452E10852E3185231
:101AF000E62852EB3852F3482150520260520F70E0
:101B0000521E80522F905242A05257B0526EC05275
:101B100087D052A1E052BDF056DB002508560A18C6
:101B2000562B28564D3856714856965856BC68253F
:101B3000702578560A88563298565AA85684B85650
:101B4000ADC825D025D81D57036F0010C9033F2409
:041B5000F4D30300C7
:04000005080000ED02
:00000001FF
